:100000003A313030303030303033413331333033C7
:1000100030333033303330333033303335333534BD
:1000200031343133353335343139450D0A3A3130D5
:1000300030303130303034313330333133303330AD
:100040003330333033303330333333363333333983
:1000500033303330333042390D0A3A3130303032B8
:100060003030303330333233373330333033303372
:10007000303330333033353432304433413331333D
:1000800030333043380D0A3A31303030333030308D
:10009000333033313330333033303332333733303E
:1000A0003330333033303330333033313337333030
:1000B00041450D0A3A31303030343030303330334E
:1000C0003033393330333033313337333033303307
:1000D0003033393330333033303330333039360D19
:1000E0000A3A31303030353030303330333033301D
:1000F00033303330333733393044334133313330B5
:100100003330333033323330333041360D0A3A3105
:1001100030303036303030333033303330333033CA
:1001200030333033303330333033313335333033B1
:100130003533303330333038350D0A3A31303030E2
:100140003730303033303330333033303330333096
:100150003330333033303337333833383339333067
:100160003331333035460D0A3A31303030383030A3
:10017000303330343233343044334133313330333D
:10018000303330333333303330333034363330334D
:100190003035390D0A3A3130303039303030343280
:1001A0003330333033303330333033303330333037
:1001B0003330333033303330333033303330344511
:1001C0000D0A3A3130303041303030333033303353
:1001D00030333033303336333233373336333034F1
:1001E000313436343534353335304430380D0A3A0D
:1001F00031303030423030303341333133303330CE
:1002000033303334333033303330343233353337C3
:10021000333233323433343145420D0A3A313030DF
:100220003043303030333633353434333633323391
:100230003033303330333033343431333834343492
:10024000343333333542430D0A3A313030304430A1
:100250003030333934313332333934343436343660
:10026000343634363432333830443341333133303A
:10027000333038440D0A3A31303030453030303385
:100280003033353330333033303330333033303351
:100290003433313330333033303435333133304627
:1002A000300D0A3A3130303046303030333133306F
:1002B0003330333033303333333933303332333018
:1002C00033303330333033353333333045390D0A3F
:1002D0003A31303031303030303332333033303304
:1002E00030333033313431304433413331333033D0
:1002F00030333033363330333045440D0A3A313001
:1003000030313130303033303336343433303332CF
:1003100033303330333033303338333733303332B4
:1003200033303330333042320D0A3A3130303132EB
:1003300030303033303431333133303332333033A3
:100340003033303330333033303330333033303395
:1003500030333042420D0A3A3130303133303030B0
:100360003330343633353044334133313330333046
:10037000333033373330333033303330333033305E
:1003800042350D0A3A313030313430303033303389
:100390003033303330333033303330333033303345
:1003A0003033303330333033303330333041460D37
:1003B0000A3A313030313530303033303330333049
:1003C00033303330343434363334333933303331FB
:1003D0003330333033353337304437450D0A3A3113
:1003E00030303136303030334133313330333033E5
:1003F00030333833303330333034353337333433CC
:100400003933303331333035320D0A3A313030310F
:1004100037303030333033303330333033303330C3
:1004200033303330333034323432333033323330AC
:100430003330333035390D0A3A31303031383030DD
:100440003033303435343633343339333033313379
:100450003033303334333930443341333133303354
:100460003034310D0A3A31303031393030303330B8
:100470003339333033303330343633373334333940
:100480003330333133303330333033333334323449
:100490000D0A3A313030314130303034313330337D
:1004A0003133303330333034363334343133303326
:1004B000313330333033313432333446410D0A3A3C
:1004C0003130303142303030343133303331333009
:1004D00033303331333130443341333133303330DF
:1004E000333034313330333033320D0A3A31303037
:1004F00031433030303330333233373334343133C7
:1005000030333133303330333333333334343133C6
:10051000303331333046340D0A3A313030314430E3
:1005200030303330333334363334343133303331A5
:100530003330333033343432333434313330333195
:10054000333043340D0A3A313030314530303033B6
:10055000303334333030443341333133303330335C
:100560003034323330333033303335333733343063
:10057000310D0A3A31303031463030303431333099
:100580003331333033303433333933303332333043
:1005900033303330333033363333333443320D0A70
:1005A0003A3130303230303030343133303331332F
:1005B000303330333634363334343133303331330F
:1005C00030333033363432304442350D0A3A31302C
:1005D00030323130303033413331333033303330F7
:1005E00034333330333033303337343233343431DF
:1005F00033303331333039310D0A3A313030323221
:1006000030303033303338333333343431333033C4
:1006100031333033303338343233343431333033B0
:1006200031333037440D0A3A3130303233303030E4
:10063000333033393333333434313330333133308F
:100640003330343533383044334133313330333061
:1006500039370D0A3A3130303234303030333034BB
:100660003433303330333033393436333434313358
:100670003033313330333034313337333434390D70
:100680000A3A313030323530303034313330333172
:100690003330333034313436333434313330333132
:1006A0003330333033303330333034460D0A3A315F
:1006B0003030323630303033303330333033303323
:1006C00030333434313044334133313330333033E9
:1006D0003034353330333037430D0A3A313030322D
:1006E00037303030333033303330333033303330F1
:1006F00033303330333033303330333033303330E2
:100700003330333037450D0A3A31303032383030FB
:1007100030333033303330333033303330333033C1
:1007200030333034323337333434313330333133A0
:100730003033460D0A3A31303032393030303330D0
:100740003330343530443341333133303330333068
:100750003436333033303330343234363334314658
:100760000D0A3A31303032413030303431333033A9
:100770003133303330333033303330333033303360
:10078000303330333034333337333431450D0A3A74
:100790003130303242303030343133303331333035
:1007A0003330333033303330333033303330333031
:1007B000333034353334304433360D0A3A31303047
:1007C00032433030303341333133303330333133EF
:1007D0003033303330333033303330333033303301
:1007E000303330333032320D0A3A31303032443027
:1007F00030303330333033303330333033303330E4
:1008000033303330333033303330333033303330D0
:10081000333031450D0A3A313030324530303033E3
:1008200030333033303330333033303330333033B0
:10083000303435343630443341333133303330465D
:10084000420D0A3A313030324630303033313331B4
:100850003330333033303332333733303330333671
:1008600033393331333833313332333044380D0A8E
:100870003A3130303330303030333034363436344F
:100880003634363330333033303330333033303343
:1008900030333033303330333039350D0A3A31307C
:1008A0003033313030303330333033303330333035
:1008B00033323337304433413331333033303331F3
:1008C00033323330333045390D0A3A313030333238
:1008D0003030303330333033303330333033303303
:1008E00030333033303330333033303330333033F0
:1008F00030333043440D0A3A313030333330303006
:1009000033303330333033303330333033303330CF
:1009100033303330333033303330333033303330BF
:1009200042440D0A3A3130303334303030333034D1
:100930003334363044334133313330333033313371
:100940003333303330333033303330343638320DA4
:100950000A3A31303033353030303330333033329F
:10096000343633383330333034363330333633384B
:100970003436333833303431343131390D0A3A3189
:100980003030333630303033303339333034353340
:100990003833303330333034333338333233343325
:1009A0003433393331304435420D0A3A3130303343
:1009B0003730303033413331333033303331333407
:1009C00033303330333033383333333433343431FA
:1009D0003431343632320D0A3A3130303338303037
:1009E00030333133303331333033373434343133DF
:1009F00034333533303331343433313330333034CE
:100A00003630410D0A3A31303033393030303330FE
:100A10003335343434363338343134363436333293
:100A20003336343530443341333133303330453469
:100A30000D0A3A31303033413030303331333533D1
:100A4000303330333033303339333034353432347B
:100A5000313435333833303436333044330D0A3A99
:100A60003130303342303030333033313333343659
:100A7000333033303331333034363331333834324A
:100A8000343634363432333142320D0A3A31303072
:100A9000334330303034313334333334363330341D
:100AA0003133353044334133313330333033313304
:100AB000363330333046410D0A3A3130303344302A
:100AC0003030333033303331333033333331333804
:100AD00033343337333733383338333733303331D4
:100AE000333045360D0A3A3130303345303030330B
:100AF00030343333383338333733303331333033C2
:100B000030333034313334333433343436343639AB
:100B1000390D0A3A313030334630303033303334E7
:100B2000343630443341333133303330333133377B
:100B300033303330333033303330333046330D0AD3
:100B40003A31303034303030303433333133303484
:100B50003633383330333133333432333133333463
:100B600036333033303337333038330D0A3A31309F
:100B7000303431303030333433303338343234364B
:100B80003331333034363338333033313334343235
:100B900033303336304438460D0A3A31303034324F
:100BA0003030303341333133303330333133383315
:100BB0003033303330333134343331333133303315
:100BC00038343238370D0A3A31303034333030303F
:100BD00034363331333034363338333033313335E0
:100BE00034323336333433313435333033353434CF
:100BF00033360D0A3A31303034343030303330331C
:100C000031333034363338333033313336343233B2
:100C10003434323044334133313330333037360DAE
:100C20000A3A3130303435303030333133393330C3
:100C3000333033303336333433313435333033318A
:100C40003436333833303331333634430D0A3A31A6
:100C50003030343630303034323436333934343363
:100C60003133313333343633303330333833303457
:100C70003633313435343245360D0A3A313030347A
:100C80003730303034363331333034363338343132
:100C9000343630443341333133303330333134310F
:100CA0003330333032360D0A3A3130303438303068
:100CB000303330333033313334343234313434330D
:100CC00031343333303433333134323330333934F5
:100CD0003444390D0A3A3130303439303030333120
:100CE00033363434333134353335333834323436C3
:100CF00033303331343633383330333134334333B4
:100D00000D0A3A31303034413030303432343433FB
:100D10003230443341333133303330333134323392
:100D2000303330333034363431343445450D0A3ABB
:100D30003130303442303030333533303335343580
:100D40003330333133343436333833303331333670
:100D5000343233303331343643410D0A3A31303096
:100D60003443303030333833303331333634323348
:100D7000363434333134353436333934343335332F
:100D8000353335304442430D0A3A31303034443043
:100D90003030334133313330333033313433333027
:100DA0003330333033393331333433323434333610
:100DB000343442460D0A3A31303034453030303325
:100DC00033333733303334333733303330333033F6
:100DD00030333133303333343133323334343243DC
:100DE000410D0A3A31303034463030303436333702
:100DF00033383433333833373338343333313335AE
:100E000033363044334133313330333041360D0AD9
:100E10003A313030353030303033313434333033B0
:100E2000303330343634313434333833353332338D
:100E300030333733323334343236440D0A3A3130BA
:100E40003035313030303436333333303433333877
:100E50003333333034333331333433343432343660
:100E600033303334333635360D0A3A31303035329B
:100E70003030303338333034333336333033343446
:100E8000343044334133313330333033313435331C
:100E900030333039340D0A3A313030353330303078
:100EA0003330333733303334333733303330333018
:100EB0003330333033303332333333303330333213
:100EC00041320D0A3A31303035343030303334333A
:100ED00030333033323335333033303332333633EB
:100EE0003133303333343133323338343236370DF3
:100EF0000A3A3130303535303030343633393335E5
:100F0000304433413331333033303331343633309E
:100F10003330333033373338343335360D0A3A31E2
:100F20003030353630303033313436343234343397
:100F30003833353332333033373332333834323475
:100F40003633333330343346300D0A3A31303035AE
:100F50003730303033313334333834323436333061
:100F60003432333633303337333033343337333945
:100F70003339304432440D0A3A313030353830306C
:100F80003033413331333033303332333033303335
:100F90003033303331343634323335333134363420
:100FA0003230370D0A3A3130303539303030343460
:100FB0003331333034323335333133303432343407
:100FC00034343436343633383330343334343939D6
:100FD0000D0A3A3130303541303030333034363428
:100FE00036343633373436333834363436333034B7
:100FF000333044334133313330333042440D0A3AD5
:1010000031303035423030303332333133303330B9
:101010003330333133343436333033383334343699
:10102000343333313337343643410D0A3A313030BB
:101030003543303030333033333336343634343371
:101040003033303330333433313330333033303383
:10105000303333343244450D0A3A31303035443080
:10106000303033343436343634363337333534363F
:101070003044334133313330333033323332333031
:10108000333043370D0A3A31303035453030303364
:10109000303436333134363436333033333432341B
:1010A0003333313337343633303333333834363601
:1010B000310D0A3A31303035463030303434333443
:1010C00033303432343133373330333433373433ED
:1010D00033303432343133373330333436440D0A1D
:1010E0003A313030363030303033373330333130DE
:1010F00044334133313330333033323333333033AD
:1011000030333033313332333445450D0A3A3130E0
:1011100030363130303033383331333333343339A0
:10112000343133313435343233303330333033319A
:1011300033343436343635370D0A3A3130303632BE
:10114000303030333033323330333033333339337C
:101150003134363432343633333436333234313357
:1011600038304436430D0A3A31303036333030307F
:10117000334133313330333033323334333033303F
:101180003330333033323436343233313333333136
:1011900037410D0A3A313030363430303033313364
:1011A0003434363436333034333433333333333307
:1011B0003434363436333034333433333346340D09
:1011C0000A3A313030363530303033343334343617
:1011D00034363330343334333333333534343330DB
:1011E0003044334133313330333033430D0A3A31F5
:1011F00030303636303030333233353330333033CD
:1012000030333434363436333034333433333333A9
:101210003633343436343646340D0A3A31303036CB
:10122000373030303330343334333333333733348F
:101230003436343633303433343333333338333471
:101240003436343642390D0A3A313030363830309F
:101250003033303433343333333339333933343058
:101260004433413331333033303332333633303338
:101270003033420D0A3A3130303639303030333085
:101280003334343634363330343334333333343127
:101290003431333034353338343633383330413405
:1012A0000D0A3A3130303641303030333733303355
:1012B00031333334313436343234343331333133FF
:1012C000393432333133343330343642410D0A3A13
:1012D00031303036423030303338343233393044C4
:1012E00033413331333033303332333733303330CB
:1012F000333033303334343131310D0A3A31303018
:10130000364330303034323330333433333339349E
:101310003634323434333133303333333433383397
:10132000303330333442380D0A3A313030364430BD
:101330003030333733303330333033303330333091
:10134000333033303331333033303330333233347E
:10135000304432460D0A3A31303036453030303381
:101360004133313330333033323338333033303349
:10137000303330333033303334333133303330463D
:10138000300D0A3A31303036463030303330343573
:101390003331333033303330333033303330333133
:1013A00034353436333033303334333042340D0A4D
:1013B0003A31303037303030303436333034333403
:1013C00032343634353436343633333431343230E3
:1013D00044334133313330333034390D0A3A31300C
:1013E00030373130303033323339333033303330DB
:1013F00033303338333833303435343634363333AE
:1014000033303339333836390D0A3A3130303732E8
:1014100030303033303334343634363330333033A5
:101420003133303331333434363436333033303390
:1014300030333036370D0A3A3130303733303030D0
:10144000333233303436343633303435343130445B
:10145000334133313330333033323431333033305E
:1014600036410D0A3A313030373430303033303392
:10147000393337343234363331343534363330332C
:101480003033343330343633303433343230360D55
:101490000A3A31303037353030303436343534363E
:1014A00034363333333033383338333034353436FD
:1014B0003436333333303339333844410D0A3A311B
:1014C00030303736303030333033333337304433E5
:1014D00041333133303330333234323330333033DD
:1014E0003033343436343635330D0A3A3130303710
:1014F00037303030333033303332333033313334CC
:1015000034363436333033303330333033323330B3
:101510003436343631380D0A3A31303037383030DD
:101520003033303338343134323436333134353487
:10153000363330333033343330343633353332307E
:101540004446450D0A3A3130303739303030334176
:10155000333133303330333234333330333033306C
:10156000333034333432343634353436343642441E
:101570000D0A3A3130303741303030333333303385
:10158000383338333034353436343633333330331C
:10159000393338333033343436343642310D0A3A45
:1015A0003130303742303030333033303333333012
:1015B00033313334343634363330333034333044EB
:1015C000334133313330333030410D0A3A3130302A
:1015D00037433030303332343433303330333033D8
:1015E00030333033303332333034363436333033D3
:1015F000373434343242380D0A3A313030374430DF
:1016000030303436333134353436333033303334AC
:101610003330343633303433343234363435343690
:10162000343634310D0A3A313030374530303033CA
:101630003333303338333833303338343230443363
:101640004133313330333033323435333033304457
:10165000440D0A3A3130303746303030333034358B
:10166000343634363333333033393338333033343C
:1016700034363436333033303334333037300D0A88
:101680003A3130303830303030333133343436342E
:101690003633303330333033303332333034363422
:1016A00036333033373330343237300D0A3A313055
:1016B00030383130303034363436333030443341E2
:1016C00033313330333033323436333033303330F8
:1016D00033313435343638300D0A3A31303038321F
:1016E00030303033303330333433303436333034D9
:1016F00033343234363435343634363333333033AE
:1017000038333831460D0A3A3130303833303030E2
:101710003330343534363436333333303339333889
:101720003330333434363436333034363435304471
:1017300032420D0A3A3130303834303030334133B0
:10174000313330333033333330333033303330337D
:101750003033353330333133343436343636340D78
:101760000A3A31303038353030303330333033307E
:101770003330333233303436343633303336333338
:101780003432343633303330343232370D0A3A3172
:10179000303038363030303335333133343436331B
:1017A00030333833383436343233343339304433E9
:1017B0004133313330333033420D0A3A313030382F
:1017C00037303030333333313330333033303335F7
:1017D00034343436333833303334343534323330D0
:1017E0003330343646430D0A3A31303038383030F1
:1017F00030333033333332343233383331343534B9
:1018000036333033303334333034363330343334AA
:101810003244450D0A3A31303038393030303436C0
:10182000343534363436333334363331304433415F
:101830003331333033303333333233303330464166
:101840000D0A3A31303038413030303330333033B4
:101850003833383330343534363436333333303349
:10186000393338333033343436343642330D0A3A70
:10187000313030384230303033303330333633303B
:10188000333133343436343633303330333033302D
:10189000333233303436343644330D0A3A31303053
:1018A00038433030303330333533343044334133E0
:1018B0003133303330333333333330333033303309
:1018C000343436343230350D0A3A31303038443021
:1018D00030303436333033303330333033303431EA
:1018E00033343338333434363436333034363436B4
:1018F000333038390D0A3A313030384530303033F2
:1019000031333033313337333033343436343633A4
:101910003033303330333033303336343530444481
:10192000370D0A3A313030384630303033413331B8
:101930003330333033333334333033303330333880
:1019400033303436333333313331333842420D0A96
:101950003A31303039303030303338333434363453
:101960003633303330333033303330333833303450
:1019700036333333303339333837440D0A3A313064
:101980003039313030303338333033353334333825
:1019900033343436343633303434333230443341F4
:1019A00033313330333039300D0A3A313030393257
:1019B000303030333333353330333033303330330A
:1019C00032333033313330333133373330333633EE
:1019D00032343239410D0A3A313030393330303017
:1019E00033363330333433343338333434363436B7
:1019F00033303338333033353331333033313336BA
:101A000035430D0A3A3130303934303030333033E9
:101A1000373330333433373339343430443341336C
:101A20003133303330333333363330333038370DAE
:101A30000A3A3130303935303030333033323332A6
:101A40003435343433303330343533303434333860
:101A50003330333733313330333033310D0A3A31A9
:101A6000303039363030303330333033343435344D
:101A7000343330333034353330333033323334333E
:101A80003833343436343630370D0A3A3130303961
:101A90003730303033303335333530443341333100
:101AA000333033303333333733303330333033380C
:101AB0003330333536450D0A3A313030393830302D
:101AC00030333133303331333633303337333033EF
:101AD00034333733303330333033303330333434DE
:101AE0003533340D0A3A313030393930303034340E
:101AF00033303330343533303334343634363330B6
:101B0000333233303330333033363334304431359D
:101B10000D0A3A31303039413030303341333133CE
:101B2000303330333333383330333033303338338A
:101B3000303436333333313331333830360D0A3ABB
:101B40003130303942303030333834353436343651
:101B50003333333033393338333033393338343245
:101B6000333133313332333441460D0A3A31303078
:101B70003943303030333833303330333633383321
:101B80003133323334333933393330304433413302
:101B9000313330333031300D0A3A3130303944305E
:101BA000303033333339333033303330333033390B
:101BB00033363338333833383334333233313337E1
:101BC000343443320D0A3A31303039453030303315
:101BD00030343534363436333333303339333833C5
:101BE00030333034353334333933303339333638B6
:101BF000310D0A3A313030394630303033383332F3
:101C0000333034353339343634363044334133317C
:101C100033303330333334313330333041370D0ADE
:101C20003A31303041303030303330343633303385
:101C3000303436333833383336333033303330346E
:101C400032333533303432333437370D0A3A3130AA
:101C5000304131303030333833303330333633384D
:101C6000333133343436333033353333343634333D
:101C700033353434343634350D0A3A31303041326C
:101C8000303030333833343435304433413331330A
:101C90003033303333343233303330333033303326
:101CA00034343538460D0A3A313030413330303033
:101CB00034323330333833343338333033383334E9
:101CC00033393330343133363338333033323336DB
:101CD00035340D0A3A31303041343030303330331E
:101CE00030333033363338333833313336333834B6
:101CF0003233313435333834353436304434390DB9
:101D00000A3A3130304135303030334133313330BD
:101D1000333033333433333033303330343633309D
:101D20003330343633383331343632410D0A3A31B8
:101D30003030413630303033333330333933383369
:101D4000383334343534363330333033343330345D
:101D50003533343436343646320D0A3A3130304178
:101D60003730303033303330333033303330333852
:101D70003330343633333332333730443341333115
:101D80003330333036340D0A3A3130304138303068
:101D90003033333434333033303330333133313321
:101DA00038333833373330333433373434343333F0
:101DB0003030340D0A3A3130304139303030333739
:101DC00033313330333033303435333033303337ED
:101DD00033313330333033303435343634364630C3
:101DE0000D0A3A3130304141303030333333313302
:101DF0003133383330333733303044334133313398
:101E0000303330333334353330333033320D0A3AF4
:101E10003130304142303030333033343436343680
:101E20003330333233303330333133383331343687
:101E3000333333313331333844370D0A3A313030AC
:101E40004143303030333833373330333433373342
:101E50003033303330333033343436343633303358
:101E6000303330333044430D0A3A3130304144305E
:101E70003030333034313431304433413331333026
:101E80003330333334363330333033303338333028
:101E9000343644350D0A3A31303041453030303334
:101EA00033333133313338333833373330333433FA
:101EB00037333033303330333033363332343243E8
:101EC000350D0A3A31303041463030303336333711
:101ED00033303334333733373332343233363337C6
:101EE00033303334333733383433304442330D0AEC
:101EF0003A313030423030303033413331333033A7
:101F000030333433303330333033303334333033B1
:101F100031343534363434343437450D0A3A3130BF
:101F2000304231303030333133373330333433377C
:101F3000333033303330333033373338333433386E
:101F400033303330333741300D0A3A31303042329A
:101F5000303030333833373330333433373332344F
:101F6000343435333933303334304433413331331F
:101F700030333038420D0A3A31303042333030306D
:101F80003334333133303330333034363338333421
:101F90003436333033323334333633373336333405
:101FA00035420D0A3A313030423430303033383334
:101FB00030333033323334343233303436333933F0
:101FC0003033303331333033313330333436300D16
:101FD0000A3A3130304235303030333633313332F3
:101FE00034363330333534313044334133313330A8
:101FF0003330333433323330333037320D0A3A3101
:10200000303042363030303330333533323436339B
:102010003833383333333433363330333133323388
:102020003133363338333433350D0A3A31303042B8
:102030003730303033363330343434363330343272
:102040003330343634343330333033323333333166
:102050003431333445450D0A3A313030423830306E
:102060003033363432343330443341333133303328
:102070003033343333333033303330333133303340
:102080003234380D0A3A3130304239303030333062
:10209000333033303339333933313331343633300D
:1020A00034323435343634333330333033394432E8
:1020B0000D0A3A313030424130303034363330332B
:1020C00030333233303330333333343336333334E5
:1020D000353337333933373339304430420D0A3AE8
:1020E00031303042423030303341333133303330AD
:1020F00033343334333033303330333734313337B0
:10210000333934343436343642410D0A3A313030C2
:10211000424330303033383432333034313331337A
:102120003033363436343233303332343633393375
:10213000323332343539310D0A3A3130304244309D
:10214000303033303330333234363432333033336B
:102150003436333134313332304433413331333038
:10216000333044360D0A3A31303042453030303366
:10217000343335333033303330333034363436342F
:102180003133383331343633383330333033323916
:10219000360D0A3A31303042463030303335333242
:1021A00033393334333633303339343533303330F5
:1021B00033303432343633303338343537380D0A2F
:1021C0003A313030433030303034323330333133E1
:1021D00030343334343435304433413331333033B5
:1021E00030333433363330333041330D0A3A313003
:1021F00030433130303033303432343333343334AD
:102200003334333933313433333934333436333888
:1022100033313330343333380D0A3A3130304332CE
:102220003030303330333633353334333433363380
:102230003033343334333234343432333233383469
:1022400031333435430D0A3A313030433330303096
:10225000333234333432304433413331333033303A
:10226000333433373330333033303436333434343B
:1022700036430D0A3A313030433430303034333362
:10228000393335343634323436333234363331330D
:102290003034343432333234343431343643390D1B
:1022A0000A3A313030433530303033383330333020
:1022B00033313330333933313436333833303434E7
:1022C0003433343233333337304434330D0A3A3114
:1022D00030304336303030334133313330333033C4
:1022E00034333833303330333034313433333433C0
:1022F0003533303335343432370D0A3A31303043E8
:10230000373030303434343233313436333833309C
:102310003432333534323335343433343335333087
:102320003331343443460D0A3A313030433830309B
:102330003034313330333133323334333033323479
:102340003533303330333630443341333133303347
:102350003034370D0A3A313030433930303033348D
:10236000333933303330333033353432333134333F
:1023700033393435333433323434343134344246FF
:102380000D0A3A3130304341303030343333393351
:102390003034363432343633393436333034333300
:1023A000353432333233303331333239430D0A3A34
:1023B00031303043423030303331333633383334D8
:1023C00033363339333430443341333133303330BF
:1023D000333434313330333031310D0A3A31303027
:1023E00043433030303330333034343436333034A8
:1023F0003433373436343434343431343633383398
:10240000303330333037320D0A3A313030434430D4
:10241000303033303432333034363338333033378E
:10242000333234323335343133343335333033347B
:10243000343439320D0A3A3130304345303030349B
:102440003133353332304433413331333033303349
:10245000343432333033303330333933303436433D
:10246000460D0A3A3130304346303030333833305D
:102470003339333034323431333833343332333028
:1024800033303434333933303331333239320D0A67
:102490003A3130304430303030333433323330330B
:1024A00034333634323434343533383436333833E5
:1024B00038343633323336304436460D0A3A31300A
:1024C00030443130303033413331333033303334D2
:1024D00034333330333033303332343434353339CA
:1024E00034363330333436330D0A3A3130304432F7
:1024F00030303033373338333133343336333434A8
:10250000323334333833303330333233363330339D
:1025100032333237420D0A3A3130304433303030C2
:10252000333733303330333633383339333034366E
:10253000333833343336304433413331333033304E
:1025400038350D0A3A313030443430303033343499
:102550003433303330333033353330333133323456
:102560003333393330333733303333343434390D54
:102570000A3A31303044353030303331333933304A
:102580003436333833373431333033323433333015
:102590003330333733303330343432330D0A3A3159
:1025A00030304436303030333033303431333233FE
:1025B00037333434313044334133313330333033D3
:1025C0003434353330333035330D0A3A313030441A
:1025D00037303030333033343332333434333332D2
:1025E00033303337333833303330333233383332B8
:1025F0003337343431450D0A3A31303044383030D5
:10260000303330333033303332333533343436349F
:102610003633303330333133303338333233303391
:102620003731410D0A3A31303044393030303338A7
:102630003433333230443341333133303330333455
:102640003436333033303330333033313332333167
:102650000D0A3A3130304441303030333833323380
:10266000333434333033303332333233383332333C
:10267000313434333133313434343244370D0A3A5F
:102680003130304442303030333133343338333406
:1026900033363436343634363337333833373436EA
:1026A000343634353433304439330D0A3A3130302E
:1026B00044433030303341333133303330333533CA
:1026C00030333033303330343533303432333133E8
:1026D000303331333245380D0A3A313030444430EA
:1026E00030303336333033303332333033303332CB
:1026F0003436333033383337343634323333333897
:10270000333441440D0A3A313030444530303033AF
:102710003633303330343633303336333234363484
:102720003234343334304433413331333033304254
:10273000370D0A3A3130304446303030333533319A
:102740003330333033303336343433313433333061
:1027500033333332343434353432343436420D0A80
:102760003A3130304530303030343234323339342D
:10277000363331333033313330343633303436342A
:1027800034333033303330333235420D0A3A31305E
:10279000304531303030333033313330343633300C
:1027A00034313333304433413331333033303335E4
:1027B00033323330333042380D0A3A31303045321B
:1027C00030303033303336333134363339333033DD
:1027D00031343633303333343634363338333033C0
:1027E00030343633380D0A3A3130304533303030FA
:1027F0003330343433383436343633333338333497
:102800003336333033303436333033353332343695
:1028100032320D0A3A3130304534303030343234CF
:10282000333337304433413331333033303335335E
:102830003333303330333033383334343636340D89
:102840000A3A313030453530303033383330333177
:102850003338333033303330333233303332333054
:102860003337333034323434343533420D0A3A316D
:102870003030453630303033383436333033383317
:102880003733333331333433363330333933323310
:102890003033353332304435380D0A3A3130304533
:1028A00037303030334133313330333033353334F4
:1028B00033303330333033313330343633303334F4
:1028C0003433343631410D0A3A3130304538303006
:1028D00030333933303331333234353436333534C1
:1028E00034333133303331343633303332343334BC
:1028F0003643460D0A3A31303045393030303338BE
:102900003330333034363330343333353436343691
:10291000343133383044334133313330333045464A
:102920000D0A3A31303045413030303335333533AC
:10293000303330333033303330333233313330347B
:10294000313332333033313330343630420D0A3A9A
:102950003130304542303030333033343332343636
:102960003339333233373334333933383331343620
:10297000333833303330333843380D0A3A3130305E
:1029800045433030303330333233373334333933F7
:1029900033343330443341333133303330333533F0
:1029A000363330333030330D0A3A3130304544302D
:1029B00030303330333833313436333833303330EA
:1029C00033383330343533363435333733323434C7
:1029D000343538310D0A3A313030454530303033F6
:1029E00039343633303334333133323332333434B1
:1029F00034333033303332333733313436333439A0
:102A0000450D0A3A313030454630303034333337B3
:102A1000343430443341333133303330333533376A
:102A200033303330333033323339333642460D0AA4
:102A30003A31303046303030303338333334353358
:102A40003433363339333134363338333033363345
:102A500031343233383339333036350D0A3A313088
:102A60003046313030303337333033363434333529
:102A70003436343634363337333433373436343609
:102A800033313335304434380D0A3A313030463240
:102A90003030303341333133303330333533383302
:102AA0003033303330333033313334333633303303
:102AB00030333239430D0A3A31303046333030301A
:102AC00033303330333133323339333033393434D4
:102AD00033303431333033373330333233303337CC
:102AE00036370D0A3A3130304634303030333833EF
:102AF0003533383432333333323338333633383492
:102B00003234353044334133313330333035300DA6
:102B10000A3A31303046353030303335333933309E
:102B2000333033303330333233323334333933307C
:102B30003436333833353330333134450D0A3A3196
:102B4000303046363030303332343333393330334B
:102B50003733313332343433313330343434353342
:102B60003034313331333730320D0A3A3130304678
:102B70003730303033383334333933313433333220
:102B800034343044334133313330333033353431FE
:102B90003330333033340D0A3A3130304638303048
:102BA00030333034333339343233323431333133F8
:102BB00037333033323431333633383339333234D8
:102BC0003644360D0A3A31303046393030303338F9
:102BD00033303431333234323338343133343332C6
:102BE000343534343434333234313330333741458F
:102BF0000D0A3A31303046413030303330343433DE
:102C0000333044334133313330333033353432337E
:102C1000303330333033303332333232370D0A3AD7
:102C20003130304642303030333033323330333766
:102C30003330333433303332333634353431343562
:102C4000333733393330343642420D0A3A3130307B
:102C50004643303030333833373431333033323425
:102C6000333330333033373330333034343330343C
:102C7000323337304444420D0A3A31303046443022
:102C80003030334133313330333033353433333014
:102C90003330333033303431333233343436343606
:102CA000343639350D0A3A3130304645303030331C
:102CB00037333134323436343633303435333433D9
:102CC00038333033313336333833323331333438C9
:102CD000340D0A3A313030464630303033333330F9
:102CE00033313336333034363436343633373337A2
:102CF00033333044334133313330333041430D0AC1
:102D00003A313031303030303033353434333033A1
:102D10003033303331333334363436333333313385
:102D200034333633303335333238320D0A3A3130BA
:102D3000313031303030333033313330343633307A
:102D40003330333134363339333434363436333444
:102D500033383330333735360D0A3A31303130328B
:102D60003030303331333033303332333033313449
:102D70003630443341333133303330333534353307
:102D800030333041340D0A3A313031303330303065
:102D90003330333133343436333033373331343600
:102DA00034323330333133323337333333383334EF
:102DB00034430D0A3A313031303430303033363428
:102DC00032343434353338343633303338333133C6
:102DD0003033303330333433313330333033330DF9
:102DE0000A3A3130313035303030333034333432E8
:102DF000304433413331333033303335343633308C
:102E00003330333033313433333035340D0A3A31E3
:102E10003031303630303033363331333033303395
:102E20003034313330333033363331333033303381
:102E30003034343338333034350D0A3A31303130B0
:102E4000373030303336333133303330333034345D
:102E50003339333033363331333033303330333347
:102E60003336304435460D0A3A313031303830305F
:102E70003033413331333033303336333033303322
:102E80003033303431333833303336333133303319
:102E90003032460D0A3A313031303930303033304B
:102EA00033313330343233353330333133343336F6
:102EB00033353338333233323436343533344544B2
:102EC0000D0A3A313031304130303033383331331C
:102ED00037343633303334333034363431333134BD
:102EE000363044334133313330333046300D0A3AD3
:102EF00031303130423030303336333133303330AB
:102F00003330333033313332333134323434343597
:102F1000333833313330333444440D0A3A313031AD
:102F2000304330303033303330333033323330337A
:102F3000313334343633303335333534323432335D
:102F4000333338343242380D0A3A3130313044307C
:102F5000303033353330333433343336333533383C
:102F6000304433413331333033303336333233301E
:102F7000333030300D0A3A31303130453030303373
:102F800030343633393334333834363338333434F9
:102F90003433323330333633303332333033343901
:102FA000310D0A3A3130313046303030333633313A
:102FB00033333436333033323339343634353330D7
:102FC00033303332333233363432333437410D0A0F
:102FD0003A313031313030303033363336333130CE
:102FE000443341333133303330333633333330339A
:102FF00030333033303331333244450D0A3A3130D7
:1030000031313130303033313331333033343336A2
:103010003331333434363330333933303436343279
:1030200033303331333237340D0A3A3130313132C3
:103030003030303331333033303332333033313377
:103040003434363330333634363436343233303346
:1030500033304437440D0A3A313031313330303077
:10306000334133313330333033363334333033302C
:10307000333033323338333733383330333033321D
:1030800037460D0A3A31303131343030303338334D
:103090003033323434333033303436343633303303
:1030A0003134313436343534353433343544420DEB
:1030B0000A3A313031313530303033373333333809
:1030C00034323434333234343435333933313432C6
:1030D0003044334133313330333032380D0A3A31F2
:1030E00030313136303030333633353330333033BE
:1030F0003034363331333434363434343634363392
:103100003834323338343243460D0A3A31303131B3
:103110003730303033333338333234323330343580
:103120003434333434343434343234363338333062
:103130003330333043420D0A3A3130313138303098
:10314000303330333033303332333634323333305C
:103150004433413331333033303336333633303325
:103160003034450D0A3A3130313139303030333076
:10317000333333373334333633393330343633380B
:1031800033333331333433303331333034364635FF
:103190000D0A3A3130313141303030333833333346
:1031A00030333134363339333034363338343533E1
:1031B000333330333133343433333443320D0A3A1A
:1031C00031303131423030303333343333323044C4
:1031D00033413331333033303336333733303330B8
:1031E000333033303330343630430D0A3A313031F6
:1031F00031433030303330333033333330333133A5
:10320000303331333233303338333833343330338F
:10321000303330333946420D0A3A3130313144309F
:10322000303033303431333133303330333233387C
:10323000333433363331333734363330343633374F
:10324000304444310D0A3A31303131453030303379
:103250004133313330333033363338333033303336
:103260003033363333343634313434343234363721
:10327000410D0A3A31303131463030303338333055
:103280003330333133303339333134363338333606
:1032900034353330333034333332333038450D0A3C
:1032A0003A313031323030303033373332343434F5
:1032B00034333033313330343633303336343430E2
:1032C00044334133313330333039340D0A3A3130FD
:1032D00031323130303033363339333033303330CC
:1032E00033333330333034363332343134343330B3
:1032F00034343436333435310D0A3A3130313232E8
:103300003030303432333033313436333234333397
:103310003333323332333033303332333033393383
:1033200033343635350D0A3A3130313233303030BE
:103330003338333033333333333033343331304451
:10334000334133313330333033363431333033304B
:1033500039430D0A3A313031323430303033303382
:10336000313332343633383330333034333330332F
:103370003633333334333533313433343433300D3F
:103380000A3A31303132353030303331333933313C
:1033900034363338333634333433333934333336E5
:1033A0003432333233303433343644410D0A3A3117
:1033B00030313236303030333034323339304433D8
:1033C00041333133303330333634323330333033CA
:1033D0003033303333333036300D0A3A3130313216
:1033E00037303030343334323334333433353331AF
:1033F0003335343433303434333833343338333092
:103400003331333246370D0A3A31303132383030C9
:103410003034353330333534343330333033323382
:10342000323435333033373434333033323332306F
:103430004431420D0A3A3130313239303030334183
:103440003331333033303336343333303330333059
:10345000333033333332343533303431343445421E
:103460000D0A3A313031324130303033303330337D
:103470003033323337333133303435333033303324
:10348000303336333833343331343646360D0A3A36
:103490003130313242303030333633313431333100
:1034A00033313330333234353330333534333044E1
:1034B000334133313330333046440D0A3A31303101
:1034C00032433030303336343433303330333033CA
:1034D00030333033363338333433313436333633B4
:1034E000373435333142380D0A3A313031324430D5
:1034F000303033313334333733313338333033379B
:10350000343533303330333033363338333433318A
:10351000343642340D0A3A313031324530303033AE
:10352000363435333233313331333133343044335D
:103530004133313330333033363435333033304444
:10354000370D0A3A3130313246303030333034368C
:103550003339343533373334333033313433333430
:1035600033303432333233303334333237440D0A6C
:103570003A31303133303030303338343434313420
:10358000343432333033303332333033343336340F
:1035900035333034333335333434440D0A3A313033
:1035A00031333130303033383431333830443341D3
:1035B00033313330333033363436333033303330E5
:1035C00033353338333339380D0A3A313031333209
:1035D00030303033303436343634363337333933B1
:1035E0003334363436343333333334333833383397
:1035F00033333630390D0A3A3130313333303030ED
:103600003338343434323436333833303330333083
:103610003330333933303436333833393339304457
:1036200034420D0A3A3130313334303030334133A3
:10363000313330333033373330333033303330336A
:103640003634353332333034343332333035380D69
:103650000A3A313031333530303033373332343267
:10366000343433303339333034363338333634331B
:103670003330333933303330343646460D0A3A313D
:10368000303133363030303330333033333330331E
:1036900030343233303334333234313335304433F1
:1036A0004133313330333036340D0A3A313031332F
:1036B00037303030333733313330333033303332E7
:1036C00033353434333033303330333233303331D5
:1036D0003433343531460D0A3A31303133383030F5
:1036E00030333033303330343234363339333134AD
:1036F000363338333333303331333033303331349E
:103700003646320D0A3A31303133393030303432C6
:103710003330333034363431333434313044334160
:103720003331333033303337333233303330304565
:103730000D0A3A31303133413030303330333033A9
:103740003033323331333034343435333033303452
:10375000313435343233303331333044380D0A3A72
:103760003130313342303030333233333337343623
:103770003339333133303338333033333333343612
:10378000333933313332343342450D0A3A31303133
:1037900033433030303330333033353044334133DA
:1037A00031333033303337333333303330333033F6
:1037B000343339333131380D0A3A31303133443012
:1037C00030303433343333343334333433353335C6
:1037D00034363338333233323338333034333339A9
:1037E000343237390D0A3A313031334530303033E5
:1037F000323433333433343334333433353436338F
:103800003833323332343333303432343230443973
:10381000440D0A3A313031334630303033413331A0
:103820003330333033373334333033303330343470
:1038300034323436333833303330333239310D0AA1
:103840003A31303134303030303330333933323450
:103850003633383333333033323330333834313333
:1038600034333234353432343435340D0A3A31306D
:103870003134313030303338333433303331343322
:1038800034333330343233323337343630443341E7
:1038900033313330333038300D0A3A31303134324D
:1038A00030303033373335333033303330343434F1
:1038B00032343633383330333033313330333933D5
:1038C00031343634420D0A3A31303134333030300D
:1038D00033383333333134333330333833343334B0
:1038E000333534343434343433383330343334359A
:1038F00030430D0A3A3130313434303030333033E4
:103900003033303332333034323332304433413376
:103910003133303330333733363330333039310DA0
:103920000A3A313031343530303033303330333897
:103930003435333033303330343234363335333555
:103940003436333833323330333131430D0A3A3180
:103950003031343630303033303333333334363340
:10396000393331333033323330333133313334332D
:103970003433343335343632420D0A3A313031344F
:1039800037303030333833373337304433413331E5
:1039900033303330333733373330333033303332FF
:1039A0003330333135440D0A3A3130313438303028
:1039B00030333033343330333134333431333033E4
:1039C00034333234363335343434323330333934BB
:1039D0003643440D0A3A31303134393030303331E6
:1039E00033303331333033303330333033393339AC
:1039F0003338333133343336343533303044333382
:103A00000D0A3A31303134413030303341333133C3
:103A10003033303337333833303330333033383377
:103A2000383334333234323334343445320D0A3A95
:103A30003130313442303030343233323330333459
:103A40003336333533393334333633303432343537
:103A5000333033303330343242440D0A3A3130316E
:103A60003443303030343633303432333633383315
:103A700035333534363338343133313044334133F0
:103A8000313330333043340D0A3A3130313444303D
:103A900030303337333933303330333033323330FF
:103AA00033323330333933333436333833313333DD
:103AB000333343370D0A3A31303134453030303307
:103AC00032333033333436333033303333333033CF
:103AD00033333134313334333133303332333942A9
:103AE000390D0A3A313031344630303034323332E5
:103AF0003333343633383333343430443341333171
:103B000033303330333734313330333041300D0AD2
:103B10003A31303135303030303330333133303387
:103B20003233303334333033313435343633323466
:103B300034333233303332333938350D0A3A313099
:103B40003135313030303339333033333432333050
:103B5000333633323330333034323434343533382F
:103B600034363330333434380D0A3A31303135326B
:103B700030303034363336333330443341333133FD
:103B80003033303337343233303330333033393409
:103B900031333437440D0A3A313031353330303037
:103BA00033383331333734363330333233383432D9
:103BB00033393332343434353339343633303334C3
:103BC00031320D0A3A313031353430303034363418
:103BD00034343634363338333533303432333233A9
:103BE0003434363436333033303332304431350DBB
:103BF0000A3A3130313535303030334133313330BA
:103C00003330333734333330333033303330333190
:103C10003330333933393333333434430D0A3A31A3
:103C20003031353630303034353434343234363364
:103C3000383330333033303330343134343432335A
:103C40003033393330343643430D0A3A313031356D
:103C50003730303033383331333333313332333933
:103C600033303436333834343339304433413331FC
:103C70003330333033300D0A3A313031353830306B
:103C8000303337343433303330333033333331330C
:103C900034333034333331343633333338333133F0
:103CA0003030320D0A3A3130313539303030333836
:103CB00033393330343633383333333033353330CC
:103CC00033303339343634313330333834364336A5
:103CD0000D0A3A31303135413030303431333633FA
:103CE0003033313339343533353044334133313384
:103CF000303330333734353330333046430D0A3ABE
:103D00003130313542303030333033383331333085
:103D10003330333033363435343233383334333070
:103D2000333733333330333444420D0A3A31303190
:103D30003543303030333633313337343633303443
:103D4000313435343633393338333533343338332B
:103D5000353338333338390D0A3A31303135443060
:103D6000303033303339333330443341333133300F
:103D70003330333734363330333033303331333319
:103D8000343645300D0A3A31303135453030303334
:103D900030333233343436343433383333333433EA
:103DA00038333533383333333033383330343638CF
:103DB000360D0A3A31303135463030303338333011
:103DC00033363339333034343432343633383330B5
:103DD00033303331333033393331304441380D0AE5
:103DE0003A313031363030303033413331333033A3
:103DF0003033383330333033303330333933313498
:103E000036333833313330333139440D0A3A3130B7
:103E10003136313030303332333833393330333771
:103E20003330333334343335333833303436333856
:103E300033303334333936310D0A3A31303136329A
:103E40003030303330343634363436333733303341
:103E50003634363436343334353044334133313309
:103E600030333032460D0A3A31303136333030306B
:103E7000333833313330333033303330333033321F
:103E80003330333234333435333033373432333400
:103E900035380D0A3A31303136343030303338333A
:103EA00035333833333330343634363436333733CE
:103EB0003033303436343634343436343643440DCB
:103EC0000A3A3130313635303030333834353334E6
:103ED00034323331333033303044334133313330A3
:103EE0003330333833323330333036340D0A3A31ED
:103EF000303136363030303330333633323330339E
:103F0000303331333434313338343434323436337B
:103F10003833333433333146390D0A3A31303136A0
:103F20003730303033303331333734363330343563
:103F3000343434363338333634313330333033304D
:103F40003336343144370D0A3A3130313638303077
:103F5000303338333833373044334133313330330F
:103F60003033383333333033303330343434323425
:103F70003631340D0A3A3130313639303030333859
:103F80003334333033313330333133373436333005
:103F900034353337343633383332333033344446C0
:103FA0000D0A3A3130313641303030333633313327
:103FB00034343134313330333734353330333033D4
:103FC000303432343634353335304444320D0A3AE5
:103FD00031303136423030303341333133303330A9
:103FE000333833343330333033303335333634369B
:103FF000333833323330333145370D0A3A313031CB
:104000003643303030333033333332343633393370
:104010003133303333333033313339333433343372
:10402000343336343643300D0A3A31303136443089
:10403000303033383332333033313330333433305C
:10404000333134353339333630443341333133301F
:10405000333045450D0A3A31303136453030303352
:104060003833353330333033303436333634343319
:104070003233323338333433363330333634313904
:10408000300D0A3A31303136463030303431333049
:1040900033363435333033353337343633383332DF
:1040A00033303331333033333332343637360D0A2D
:1040B0003A313031373030303033393331333033D7
:1040C00033333034353332304433413331333033AA
:1040D00030333833363330333042460D0A3A3130DC
:1040E00031373130303033303331333933343334A6
:1040F000333433373436333833323330333133308B
:1041000033343330333138360D0A3A3130313732C7
:104110003030303435343633363434333233303370
:10412000393436333133303331333033303338335D
:1041300031333434340D0A3A3130313733303030A2
:104140003336343433343044334133313330333025
:10415000333833373330333033303335333033342F
:1041600038420D0A3A31303137343030303335345B
:104170003334363434343233323330333433363309
:104180003634313334343133303336343546320D0E
:104190000A3A313031373530303033303330333024
:1041A00034323436333533363436333833323330D1
:1041B0003331333034363433304432460D0A3A31F9
:1041C00030313736303030334133313330333033C0
:1041D00038333833303330333033343331343634AA
:1041E0003133303338343631340D0A3A31303137E7
:1041F0003730303033313332333234363338333191
:104200003330333133303334333033313435343683
:104210003337343446390D0A3A313031373830309B
:104220003033323332333833343336333633353355
:104230003434313432333630443341333133303334
:104240003032330D0A3A313031373930303033388B
:104250003339333033303330333033363435333031
:104260003330333034323436333533373436443305
:104270000D0A3A3130313741303030333833323350
:104280003033313330333433313436343133303307
:10429000383436333133323332343643390D0A3A17
:1042A00031303137423030303338333133303331DD
:1042B00033303433333630443341333133303330B9
:1042C000333834313330333030350D0A3A31303110
:1042D00037433030303330333433303331343534A6
:1042E000363337343433323336333233303330339A
:1042F000353435333441360D0A3A313031374430B4
:10430000303033393335343633343338333133376F
:104310003436333034313433343633383336343161
:10432000333036320D0A3A313031374530303033A0
:104330003033353433304433413331333033303339
:10434000383432333033303330333534333334432D
:10435000330D0A3A31303137463030303339333566
:104360003435333433383331333734363330343112
:1043700033373436333833323434343233450D0A3C
:104380003A31303138303030303330343234343404
:1043900035333834363330333834363332343434DA
:1043A00035333933333330304434440D0A3A313005
:1043B00031383130303033413331333033303338CA
:1043C00034333330333033303436333033343436BF
:1043D00034343436343633320D0A3A3130313832EF
:1043E0003030303338333433383338333133383393
:1043F000373432333034343436343633383334337C
:1044000034343131390D0A3A3130313833303030CB
:104410003331343433383436333833303330333067
:104420003330333833363044334133313330333043
:1044300037370D0A3A313031383430303033383490
:104440003433303330333033303330333233363348
:104450003333373334333633393330343634310D44
:104460000A3A313031383530303033383333333144
:104470003334333033393330343633383333333005
:104480003339333033303334343632420D0A3A3133
:1044900030313836303030343233303339343633EB
:1044A00030333334333044334133313330333033CA
:1044B0003834353330333032430D0A3A3130313805
:1044C00037303030333033303332333933303330C8
:1044D00034313435343233383334333033303330AD
:1044E0003330343530340D0A3A31303138383030E9
:1044F0003034323338333933303335333033343387
:104500003933303330333434353432333033393374
:104510003045460D0A3A3130313839303030333099
:104520003436333830443341333133303330333839
:104530003436333033303330333833313330314243
:104540000D0A3A3130313841303030333033353381
:104550003033343336333133373436333033323328
:10456000383436333933303332333944370D0A3A3D
:104570003130313842303030333833383331333002
:1045800033303332333833343336333133373436F0
:10459000333033323339304446440D0A3A31303106
:1045A00038433030303341333133303330333933C3
:1045B00030333033303330333233333436333933CE
:1045C000343330333444380D0A3A313031384430E2
:1045D00030303338333533383333333033313333AA
:1045E0003436333033393339343634333333343586
:1045F000333437460D0A3A313031384530303033B4
:104600003833343436343633303330333133303476
:104610003233353332304433413331333033304247
:10462000450D0A3A31303138463030303339333184
:10463000333033303330333533383333333033384A
:1046400033303436333833303336343239300D0A80
:104650003A31303139303030303330333833303430
:10466000363338333033343432333034343338340F
:1046700036333833303330333136300D0A3A313057
:1046800031393130303033303339333134363338F7
:1046900033383433304433413331333033303339CA
:1046A00033323330333039310D0A3A313031393227
:1046B00030303033303336343533303330343333D5
:1046C00032333033373332343434343330333133BC
:1046D00030343633460D0A3A3130313933303030E8
:1046E000333033333330333034363332343134349F
:1046F0003330333333393334343133303331343688
:1047000032460D0A3A3130313934303030333234B8
:10471000353334304433413331333033303339334C
:104720003333303330333034333333333237300D87
:104730000A3A313031393530303033333330333079
:104740003332333033393332343633383330333332
:104750003332333033313333343633410D0A3A3167
:10476000303139363030303338333033303433331E
:104770003033363332333433353331343334343306
:104780003134313335304432460D0A3A3130313923
:1047900037303030334133313330333033393334E1
:1047A00033303330333033393331343633383336D2
:1047B0003433343346420D0A3A31303139383030EF
:1047C00030333934333336343233323330343334B4
:1047D00036333033303333333034333432333433AD
:1047E0003443380D0A3A31303139393030303335CD
:1047F0003331333534343330333333323334333885
:104800003330343530443341333133303330314158
:104810000D0A3A31303139413030303339333533A4
:104820003033303330333033313332343533303367
:10483000353434333033303332333246340D0A3A80
:10484000313031394230303034353330333734342D
:10485000333033303333333234353330343134342E
:10486000333033303330333242360D0A3A3130315F
:1048700039433030303337333133303435333033FC
:1048800036343130443341333133303330333933DC
:10489000363330333045430D0A3A31303139443004
:1048A00030303330333033303336333833343331E0
:1048B00034363336333134313331333233303332CB
:1048C000343541430D0A3A313031394530303033D7
:1048D00030333033303336333833343331343633A6
:1048E0003633373435333133323338333733313984
:1048F000390D0A3A313031394630303033383330BF
:104900003433304433413331333033303339333758
:1049100033303330333033303337343542380D0AA7
:104920003A3130314130303030333033303330335E
:104930003633383334333134363336343533323337
:1049400031333234363339343535390D0A3A313072
:104950003141313030303337333433303331343325
:104960003334333034323332333033343332333818
:1049700034313333304439300D0A3A313031413239
:1049800030303033413331333033303339333833EF
:1049900030333033303434343134343432333933E7
:1049A00031343632460D0A3A31303141333030300D
:1049B00033383331333033303332343333303330D0
:1049C00033373330333334343330333134353334B5
:1049D00035300D0A3A3130314134303030333833EC
:1049E0003533383333333034363436343633373383
:1049F0003933393044334133313330333033420D7E
:104A00000A3A31303141353030303339333933308F
:104A10003330333033343335343634353331343561
:104A20003334333833303330333631380D0A3A319A
:104A30003031413630303033383339333034363337
:104A40003833313333333033323433333034363335
:104A50003333383331333030430D0A3A313031415A
:104A60003730303033313330333333393331343519
:104A700033303044334133313330333033393431F0
:104A80003330333034310D0A3A313031413830303F
:104A900030333033303330343633303330333333F4
:104AA00030333133303335333933313330333333DB
:104AB0003932310D0A3A3130314139303030333901
:104AC00033353338333433363330343234363431AB
:104AD0003330333134363432333033353339423690
:104AE0000D0A3A31303141413030303339343533C9
:104AF000343044334133313330333033393432336B
:104B0000303330333033383338333446440D0A3A97
:104B1000313031414230303033303330333033395B
:104B2000333033303330333233303337343134355C
:104B3000333033313332333445370D0A3A31303183
:104B40004143303030333833353338333333303416
:104B5000363436343633373332343534363435330D
:104B6000363331304438460D0A3A31303141443021
:104B70003030334133313330333033393433333001
:104B800033303330333133303334333834343330FB
:104B9000343541390D0A3A31303141453030303306
:104BA00039333034363333333133383332333633C9
:104BB00038333233303334333633303336343539B7
:104BC000340D0A3A313031414630303033303335EC
:104BD00034313436333833323330343333303336A0
:104BE00034353044334133313330333039410D0AB9
:104BF0003A3130314230303030333934343330337D
:104C00003033303333333334363339333133303375
:104C100038333034353330333437310D0A3A3130AC
:104C20003142313030303334333434313436333848
:104C30003332333033383330333433303331343547
:104C400034363336343433410D0A3A31303142325E
:104C50003030303332333433383334333634313325
:104C600031304433413331333033303339343533F9
:104C700030333038350D0A3A31303142333030304C
:104C800033303330333834353330333033343339F1
:104C900034323333333134363339333133303433E0
:104CA00033320D0A3A313031423430303033303320
:104CB00035333334363338333233303333333033C0
:104CC0003934333334333433303334333933390DC7
:104CD0000A3A3130314235303030343233363433C1
:104CE0003044334133313330333033393436333079
:104CF0003330333033343333343633360D0A3A31CC
:104D0000303142363030303338333233303433336D
:104D10003033343330333134353436333434343360
:104D20003234343434343544310D0A3A313031427E
:104D30003730303033393330333033303331333848
:104D40003331333433323335333434343431333034
:104D50003330304434310D0A3A313031423830305A
:104D60003033413331333033303431333033303317
:104D70003033303330333233343339333133353405
:104D80003530460D0A3A3130314239303030333027
:104D900033303330333033383331333033303330F2
:104DA00034323335333033353330333033303230DF
:104DB0000D0A3A3130314241303030333034313302
:104DC00030333033363331333033303330333134C2
:104DD000353044334133313330333031460D0A3AC4
:104DE000313031424230303034313331333033308E
:104DF0003330343533343336343633313330333083
:104E0000333034343330333043390D0A3A313031B2
:104E10004243303030333633313330333033303453
:104E2000313334333033363331333033303330335E
:104E3000323334333345390D0A3A3130314244305C
:104E4000303034353330333133323330333533303F
:104E50003044334133313330333034313332333013
:104E6000333045440D0A3A31303142453030303329
:104E700030343533363336333633303331333233FF
:104E800030333334353336333733303331333241E3
:104E9000330D0A3A31303142463030303330333816
:104EA00034333331333033303331333233303435DC
:104EB00033343331333033303331333241390D0A07
:104EC0003A313031433030303033303433333130B5
:104ED000443341333133303330343133333330338F
:104EE00030333033303338333642360D0A3A3130CE
:104EF000314331303030333833393330343633386E
:104F0000333634353333333034343432333033376B
:104F100033323432343432320D0A3A3130314332A2
:104F2000303030333033393330343633383336344D
:104F30003333303339333033303436333033353341
:104F400036304436440D0A3A313031433330303054
:104F50003341333133303330343133343330333021
:104F6000333033303333333033303432333033341F
:104F700036420D0A3A313031433430303033323337
:104F800032333534343330333033303332333033FB
:104F90003134333435333033303330343233410D00
:104FA0000A3A3130314335303030343633393331E9
:104FB00034363338333333303331333033313338BD
:104FC0003044334133313330333035310D0A3A31E7
:104FD00030314336303030343133353330333033A1
:104FE0003033303331343634323330333034363496
:104FF0003533303330333230380D0A3A31303143C3
:10500000373030303331333034343435333033307B
:105010003435343534323330333133303333333362
:105020003337343644410D0A3A3130314338303069
:105030003033393331333033383330343433313043
:10504000443341333133303330343133363330331A
:105050003032450D0A3A3130314339303030333057
:10506000333333323436333933313333343333300B
:1050700033343339333134333433333433344344D6
:105080000D0A3A3130314341303030333433353327
:1050900035343633383332333333383330343333D3
:1050A000393432333234333334333442300D0A3A04
:1050B000313031434230303033343431333830449E
:1050C00033413331333033303431333733303330AD
:1050D000333033343335343645380D0A3A313031D4
:1050E0004343303030333833323333343333303377
:1050F0003833373334343233313432333633383370
:10510000393333343638430D0A3A31303143443081
:105110003030333833333330333333303338343261
:10512000333433323435343234343338333833363D
:10513000304441380D0A3A31303143453030303354
:10514000413331333033303431333833303330332B
:105150003033343330333134333433333034323921
:10516000330D0A3A31303143463030303332333840
:1051700033333334343233313339333633383339EC
:1051800033313436333833333331343336410D0A27
:105190003A313031443030303033303338333433D7
:1051A00034333534343434343433383335333130C4
:1051B00044334133313330333038430D0A3A3130E0
:1051C00031443130303034313339333033303330AF
:1051D000333034323435333033303332333933389B
:1051E00033303337343535330D0A3A3130314432C8
:1051F000303030333033303330343234363335338B
:10520000353436333833323330333133303333336C
:1052100032343634350D0A3A31303144333030309F
:105220003339333133303333333033343333304441
:105230003341333133303330343134313330333040
:1052400038350D0A3A313031443430303033303370
:10525000313339333433343334333534363338330C
:105260003233303331333033343330333135320D40
:105270000A3A313031443530303034353436333613
:1052800034343332333033313339333833343330E9
:105290003331343333303331333930380D0A3A3126
:1052A00030314436303030333034343330304433BE
:1052B00041333133303330343134323330333033BF
:1052C0003033353338333434330D0A3A31303144E6
:1052D000373030303335333833313434343233309F
:1052E000333033393338333533383334333533357A
:1052F0003334343445420D0A3A3130314438303099
:105300003034343337333733343338333033303366
:10531000323331333833313337333133303335305F
:105320004432460D0A3A313031443930303033415D
:10533000333133303330343134333330333033304E
:10534000333033303339333833303331333946390E
:105350000D0A3A3130314441303030333134313359
:105360003034353432333034323330333033303319
:10537000303339333033343338343542450D0A3A1B
:1053800031303144423030303330333733323334DC
:1053900033383436343634363337343634353044B3
:1053A000334133313330333042320D0A3A31303108
:1053B00044433030303431343433303330333034AC
:1053C000313335343634343337333133343338339F
:1053D000363436333437410D0A3A313031444430B3
:1053E000303033393335333833333338333833337C
:1053F0003336333833303338333633383339333068
:10540000343639340D0A3A31303144453030303396
:10541000383336343533323330333033323044334B
:10542000413331333033303431343533303330423B
:10543000450D0A3A3130314446303030333034345F
:105440003332333033373332343334343330333927
:1054500033303436333833363433333035440D0A51
:105460003A31303145303030303339333033303405
:105470003633303330333333303330343233303308
:1054800034333233323336343437430D0A3A313021
:1054900031453130303033303335333930443341B6
:1054A00033313330333034313436333033303330DA
:1054B00033303330333241330D0A3A3130314532F3
:1054C00030303033303338343533343336333134AD
:1054D0003334353330333033303432343633393398
:1054E00031343631410D0A3A3130314533303030C4
:1054F0003338333333303331333033303331343680
:105500003432333033303436343233383337304456
:1055100035390D0A3A31303145343030303341338A
:10552000313330333034323330333033303330335F
:105530003033303332333133303434343534390D61
:105540000A3A31303145353030303330333034324F
:10555000343534323330333133303332333333371D
:105560003436333933313330333831340D0A3A314C
:1055700030314536303030333033333333343633F3
:1055800039333133323433333033323330304433E0
:105590004133313330333034440D0A3A3130314500
:1055A00037303030343233313330333033303334DA
:1055B00033393331343334333334333433343335B0
:1055C0003335343645460D0A3A31303145383030BE
:1055D0003033383332333233383330343333393491
:1055E0003233323433333433343334333433353485
:1055F0003644300D0A3A31303145393030303338A5
:10560000333233323433333034343337304433414C
:10561000333133303330343233323330333030435C
:105620000D0A3A3130314541303030333034343482
:105630003534363338333033303332333033393333
:10564000323436333833333330333242420D0A3A50
:105650003130314542303030333033383431333407
:105660003332343534323434333833343330333105
:10567000343334333330343238330D0A3A31303145
:1056800045433030303332333933383044334133AB
:1056900031333033303432333333303330333034EA
:1056A000343435343643330D0A3A313031454430E1
:1056B00030303338333033303331333033393331C2
:1056C000343633383333333134333330333833349F
:1056D000333441410D0A3A313031454530303033B1
:1056E000353434343434343338333034323435337D
:1056F0003033303332333933383335333230443862
:10570000420D0A3A31303145463030303341333181
:10571000333033303432333433303330333033306A
:1057200033373435333033303330343239330D0A94
:105730003A31303146303030303436333533353429
:105740003633383332333033323330333333333428
:1057500036333933313330333136380D0A3A31305C
:105760003146313030303330333133313334333408
:1057700033343335343633383339333430443341CA
:1057800033313330333039420D0A3A313031463219
:1057900030303034323335333033303330333233EA
:1057A00030333133303334333033313435343633CE
:1057B00036343434440D0A3A3130314633303030E7
:1057C00033323330333133393338333433303331A8
:1057D000343333303331333933303330333033399A
:1057E00036320D0A3A3130314634303030333833C6
:1057F000303331333933393338333730443341334D
:105800003133303330343233363330333036370D92
:105810000A3A31303146353030303330333833386E
:105820003334333234323333343434333332333049
:105830003334333633343434333430370D0A3A3179
:10584000303146363030303431333033363435331E
:105850003033303330343234363335343134363318
:105860003833323330333145360D0A3A3130314630
:1058700037303030333033303338304433413331E4
:1058800033303330343233373330333033303330F6
:105890003333333934430D0A3A31303146383030FE
:1058A00030343233313339333433313332333234C9
:1058B00036333833313330333133303334333033BC
:1058C0003130370D0A3A31303146393030303435E5
:1058D0003436333734343332333433383334333685
:1058E0003334333833343431343634333044424350
:1058F0000D0A3A31303146413030303341333133A3
:105900003033303432333833303330333033303374
:10591000363435333033303334333945340D0A3A85
:10592000313031464230303033393330333333392C
:105930003432333533313436333833323330333134
:10594000333033313339333443350D0A3A31303162
:1059500046433030303331333233323436333833F8
:1059600031333033313330333333373044334133F1
:10597000313330333046410D0A3A3130314644300C
:1059800030303432333933303330333033343330F2
:1059900033313435343633363434333233343333CD
:1059A000333438460D0A3A313031464530303034E0
:1059B00031333033323339333833303336343533AF
:1059C00030333033303432343633353335343636A1
:1059D000410D0A3A313031464630303033383332B7
:1059E000333033313330343533363044334133316F
:1059F00033303330343234313330333042300D0AC7
:105A00003A31303230303030303330333033353378
:105A1000393432333133393334333133323332344E
:105A200036333833313330333137440D0A3A31307D
:105A30003230313030303330333433303331343549
:105A40003436333734343332333033323339333816
:105A500033333434333434350D0A3A313032303262
:105A600030303033393433343130443341333133EF
:105A70003033303432343233303330333033343304
:105A800032333037310D0A3A313032303330303042
:105A900033303333343433343338333133363436CC
:105AA00033303332333734363436333633323330BF
:105AB00032330D0A3A313032303430303033303313
:105AC0003333383334333933333432333433383394
:105AD0003133363436333034343336304434330DA6
